{
  "_format": "hh-sol-artifact-1",
  "contractName": "Sadaiv",
  "sourceName": "contracts/Sadaiv.sol",
  "abi": [
    {
      "inputs": [],
      "stateMutability": "nonpayable",
      "type": "constructor"
    },
    {
      "anonymous": false,
      "inputs": [
        {
          "components": [
            {
              "internalType": "string",
              "name": "owner",
              "type": "string"
            },
            {
              "internalType": "string",
              "name": "name",
              "type": "string"
            }
          ],
          "indexed": false,
          "internalType": "struct Sadaiv.Repository",
          "name": "repository",
          "type": "tuple"
        },
        {
          "components": [
            {
              "internalType": "string",
              "name": "developer",
              "type": "string"
            },
            {
              "internalType": "string",
              "name": "cid",
              "type": "string"
            },
            {
              "internalType": "string",
              "name": "branch",
              "type": "string"
            },
            {
              "internalType": "string",
              "name": "commitMessage",
              "type": "string"
            }
          ],
          "indexed": false,
          "internalType": "struct Sadaiv.Build",
          "name": "build",
          "type": "tuple"
        }
      ],
      "name": "NewBuildCreated",
      "type": "event"
    },
    {
      "anonymous": false,
      "inputs": [
        {
          "indexed": false,
          "internalType": "string",
          "name": "email",
          "type": "string"
        },
        {
          "indexed": false,
          "internalType": "address",
          "name": "walletAddress",
          "type": "address"
        }
      ],
      "name": "VerifiedBuilder",
      "type": "event"
    },
    {
      "inputs": [
        {
          "internalType": "string",
          "name": "repositoryOwner",
          "type": "string"
        },
        {
          "internalType": "string",
          "name": "repositoryName",
          "type": "string"
        },
        {
          "internalType": "string",
          "name": "branchName",
          "type": "string"
        },
        {
          "internalType": "string",
          "name": "developer",
          "type": "string"
        },
        {
          "internalType": "string",
          "name": "commitMessage",
          "type": "string"
        },
        {
          "internalType": "string",
          "name": "cid",
          "type": "string"
        }
      ],
      "name": "createBuild",
      "outputs": [],
      "stateMutability": "nonpayable",
      "type": "function"
    },
    {
      "inputs": [
        {
          "internalType": "string",
          "name": "email",
          "type": "string"
        },
        {
          "internalType": "bytes32",
          "name": "_hashMessage",
          "type": "bytes32"
        },
        {
          "internalType": "uint8",
          "name": "_v",
          "type": "uint8"
        },
        {
          "internalType": "bytes32",
          "name": "_r",
          "type": "bytes32"
        },
        {
          "internalType": "bytes32",
          "name": "_s",
          "type": "bytes32"
        }
      ],
      "name": "verifyBuilder",
      "outputs": [],
      "stateMutability": "nonpayable",
      "type": "function"
    }
  ],
  "bytecode": "0x608060405234801561001057600080fd5b50336000806101000a81548173ffffffffffffffffffffffffffffffffffffffff021916908373ffffffffffffffffffffffffffffffffffffffff160217905550610ae5806100606000396000f3fe608060405234801561001057600080fd5b50600436106100365760003560e01c8063757c5a891461003b578063de67a43614610057575b600080fd5b6100556004803603810190610050919061039f565b610073565b005b610071600480360381019061006c919061042e565b6101fe565b005b60008054906101000a900473ffffffffffffffffffffffffffffffffffffffff1673ffffffffffffffffffffffffffffffffffffffff163373ffffffffffffffffffffffffffffffffffffffff1614610101576040517f08c379a00000000000000000000000000000000000000000000000000000000081526004016100f8906107cd565b60405180910390fd5b60006040518060400160405280601c81526020017f19457468657265756d205369676e6564204d6573736167653a0a333200000000815250905060008186604051602001610150929190610730565b60405160208183030381529060405280519060200120905060006001828787876040516000815260200160405260405161018d9493929190610758565b6020604051602081039080840390855afa1580156101af573d6000803e3d6000fd5b5050506020604051035190507fd84525a4a1de9898f5b1fa8b8897e551bd8fdb2432db4b1c3cd2c52865a35d6e88826040516101ec92919061079d565b60405180910390a15050505050505050565b60008054906101000a900473ffffffffffffffffffffffffffffffffffffffff1673ffffffffffffffffffffffffffffffffffffffff163373ffffffffffffffffffffffffffffffffffffffff161461028c576040517f08c379a0000000000000000000000000000000000000000000000000000000008152600401610283906107ed565b60405180910390fd5b60006040518060400160405280888152602001878152509050600060405180608001604052808681526020018481526020018781526020018581525090507fcebe55730eea05d9c7f8e41fddcaae5fdbed14f52fcca7b7998dd5aa6954a16882826040516102fb92919061080d565b60405180910390a15050505050505050565b600061032061031b84610869565b610844565b90508281526020810184848401111561033857600080fd5b610343848285610926565b509392505050565b60008135905061035a81610a81565b92915050565b600082601f83011261037157600080fd5b813561038184826020860161030d565b91505092915050565b60008135905061039981610a98565b92915050565b600080600080600060a086880312156103b757600080fd5b600086013567ffffffffffffffff8111156103d157600080fd5b6103dd88828901610360565b95505060206103ee8882890161034b565b94505060406103ff8882890161038a565b93505060606104108882890161034b565b92505060806104218882890161034b565b9150509295509295909350565b60008060008060008060c0878903121561044757600080fd5b600087013567ffffffffffffffff81111561046157600080fd5b61046d89828a01610360565b965050602087013567ffffffffffffffff81111561048a57600080fd5b61049689828a01610360565b955050604087013567ffffffffffffffff8111156104b357600080fd5b6104bf89828a01610360565b945050606087013567ffffffffffffffff8111156104dc57600080fd5b6104e889828a01610360565b935050608087013567ffffffffffffffff81111561050557600080fd5b61051189828a01610360565b92505060a087013567ffffffffffffffff81111561052e57600080fd5b61053a89828a01610360565b9150509295509295509295565b610550816108dd565b82525050565b61055f816108ef565b82525050565b610576610571826108ef565b610999565b82525050565b60006105878261089a565b61059181856108b0565b93506105a1818560208601610935565b80840191505092915050565b60006105b8826108a5565b6105c281856108bb565b93506105d2818560208601610935565b6105db816109d2565b840191505092915050565b60006105f1826108a5565b6105fb81856108cc565b935061060b818560208601610935565b610614816109d2565b840191505092915050565b600061062c602b836108cc565b9150610637826109e3565b604082019050919050565b600061064f6029836108cc565b915061065a82610a32565b604082019050919050565b6000608083016000830151848203600086015261068282826105ad565b9150506020830151848203602086015261069c82826105ad565b915050604083015184820360408601526106b682826105ad565b915050606083015184820360608601526106d082826105ad565b9150508091505092915050565b600060408301600083015184820360008601526106fa82826105ad565b9150506020830151848203602086015261071482826105ad565b9150508091505092915050565b61072a81610919565b82525050565b600061073c828561057c565b91506107488284610565565b6020820191508190509392505050565b600060808201905061076d6000830187610556565b61077a6020830186610721565b6107876040830185610556565b6107946060830184610556565b95945050505050565b600060408201905081810360008301526107b781856105e6565b90506107c66020830184610547565b9392505050565b600060208201905081810360008301526107e68161061f565b9050919050565b6000602082019050818103600083015261080681610642565b9050919050565b6000604082019050818103600083015261082781856106dd565b9050818103602083015261083b8184610665565b90509392505050565b600061084e61085f565b905061085a8282610968565b919050565b6000604051905090565b600067ffffffffffffffff821115610884576108836109a3565b5b61088d826109d2565b9050602081019050919050565b600081519050919050565b600081519050919050565b600081905092915050565b600082825260208201905092915050565b600082825260208201905092915050565b60006108e8826108f9565b9050919050565b6000819050919050565b600073ffffffffffffffffffffffffffffffffffffffff82169050919050565b600060ff82169050919050565b82818337600083830152505050565b60005b83811015610953578082015181840152602081019050610938565b83811115610962576000848401525b50505050565b610971826109d2565b810181811067ffffffffffffffff821117156109905761098f6109a3565b5b80604052505050565b6000819050919050565b7f4e487b7100000000000000000000000000000000000000000000000000000000600052604160045260246000fd5b6000601f19601f8301169050919050565b7f4f6e6c7920636f6e7472616374206f776e65722063616e20766572696679207460008201527f6865206275696c6465722e000000000000000000000000000000000000000000602082015250565b7f4f6e6c79206f776e65722063616e207075736820746f20637265617465206e6560008201527f77206275696c64732e0000000000000000000000000000000000000000000000602082015250565b610a8a816108ef565b8114610a9557600080fd5b50565b610aa181610919565b8114610aac57600080fd5b5056fea2646970667358221220354928f66068d52c98bb8dcc43aad6c611e10d8cf542835342d9808e629b180d64736f6c63430008040033",
  "linkReferences": {},
  "deployedLinkReferences": {}
}